{
  "contractName": "Creator",
  "abi": [
    {
      "constant": false,
      "inputs": [
        {
          "name": "_timeLimit",
          "type": "uint32"
        },
        {
          "name": "_ballotType",
          "type": "uint8"
        },
        {
          "name": "_voteLimit",
          "type": "uint8"
        },
        {
          "name": "_ballotId",
          "type": "uint32"
        },
        {
          "name": "_title",
          "type": "string"
        },
        {
          "name": "_whitelisted",
          "type": "uint8"
        },
        {
          "name": "_votesToWin",
          "type": "uint8"
        }
      ],
      "name": "createBallot",
      "outputs": [],
      "payable": false,
      "stateMutability": "nonpayable",
      "type": "function"
    },
    {
      "constant": true,
      "inputs": [
        {
          "name": "id",
          "type": "uint32"
        }
      ],
      "name": "getAddress",
      "outputs": [
        {
          "name": "contractAddress",
          "type": "address"
        }
      ],
      "payable": false,
      "stateMutability": "view",
      "type": "function"
    }
  ],
  "bytecode": "0x608060405234801561001057600080fd5b506120ad806100206000396000f30060806040526004361061004c576000357c0100000000000000000000000000000000000000000000000000000000900463ffffffff16806368501aee146100515780636a9e6e75146100c4575b600080fd5b34801561005d57600080fd5b50610082600480360381019080803563ffffffff169060200190929190505050610181565b604051808273ffffffffffffffffffffffffffffffffffffffff1673ffffffffffffffffffffffffffffffffffffffff16815260200191505060405180910390f35b3480156100d057600080fd5b5061017f600480360381019080803563ffffffff169060200190929190803560ff169060200190929190803560ff169060200190929190803563ffffffff169060200190929190803590602001908201803590602001908080601f0160208091040260200160405190810160405280939291908181526020018383808284378201915050505050509192919290803560ff169060200190929190803560ff1690602001909291905050506101c9565b005b60008060008363ffffffff1663ffffffff16815260200190815260200160002060009054906101000a900473ffffffffffffffffffffffffffffffffffffffff169050919050565b600033600160006101000a81548173ffffffffffffffffffffffffffffffffffffffff021916908373ffffffffffffffffffffffffffffffffffffffff16021790555087878787878787600160009054906101000a900473ffffffffffffffffffffffffffffffffffffffff1661023e6103c0565b808963ffffffff1663ffffffff1681526020018860ff1660ff1681526020018760ff1660ff1681526020018663ffffffff1663ffffffff168152602001806020018560ff1660ff1681526020018460ff1660ff1681526020018373ffffffffffffffffffffffffffffffffffffffff1673ffffffffffffffffffffffffffffffffffffffff168152602001828103825286818151815260200191508051906020019080838360005b838110156103015780820151818401526020810190506102e6565b50505050905090810190601f16801561032e5780820380516001836020036101000a031916815260200191505b509950505050505050505050604051809103906000f080158015610356573d6000803e3d6000fd5b509050806000808763ffffffff1663ffffffff16815260200190815260200160002060006101000a81548173ffffffffffffffffffffffffffffffffffffffff021916908373ffffffffffffffffffffffffffffffffffffffff1602179055505050505050505050565b604051611cb1806103d183390190560060806040523480156200001157600080fd5b5060405162001cb138038062001cb1833981018060405281019080805190602001909291908051906020019092919080519060200190929190805190602001909291908051820192919060200180519060200190929190805190602001909291908051906020019092919050505087600560000160066101000a81548163ffffffff021916908363ffffffff16021790555086600560000160006101000a81548160ff021916908360ff16021790555085600560000160056101000a81548160ff021916908360ff16021790555084600560000160016101000a81548163ffffffff021916908363ffffffff16021790555083600560010190805190602001906200011e9291906200021d565b5082600560020160006101000a81548160ff021916908360ff16021790555081600560020160016101000a81548160ff021916908360ff1602179055506000600560020160026101000a81548160ff021916908360ff16021790555080601060006101000a81548173ffffffffffffffffffffffffffffffffffffffff021916908373ffffffffffffffffffffffffffffffffffffffff1602179055506000601060146101000a81548160ff021916908360ff1602179055506000601060156101000a81548160ff021916908360ff1602179055506000601060166101000a81548160ff021916908360ff1602179055505050505050505050620002cc565b828054600181600116156101000203166002900490600052602060002090601f016020900481019282601f106200026057805160ff191683800117855562000291565b8280016001018555821562000291579182015b828111156200029057825182559160200191906001019062000273565b5b509050620002a09190620002a4565b5090565b620002c991905b80821115620002c5576000816000905550600101620002ab565b5090565b90565b6119d580620002dc6000396000f300608060405260043610610149576000357c0100000000000000000000000000000000000000000000000000000000900463ffffffff16806306f2057a1461014e5780630a69df581461017d5780631ca57714146101ae578063293af812146101df5780632f265cf7146101f657806335da24f91461023b578063392e66781461026c5780633eb6b350146102b55780635374be8f146102e6578063555a1ad61461032f5780635b9eb761146103665780636552e3c6146103955780636cfd8b82146103c65780636ec4847a146103dd578063922133e31461040c5780639b7c4d7914610451578063a10cfae514610482578063a6aba0ac146104b3578063a711b878146104f8578063b8381c7814610584578063c9ccaea1146105ea578063d05841a0146106a1578063f5d5584d14610707578063f7c2c4c514610738578063ff3c1a8f14610769575b600080fd5b34801561015a57600080fd5b506101636107f9565b604051808215151515815260200191505060405180910390f35b34801561018957600080fd5b5061019261082a565b604051808260ff1660ff16815260200191505060405180910390f35b3480156101ba57600080fd5b506101c3610844565b604051808260ff1660ff16815260200191505060405180910390f35b3480156101eb57600080fd5b506101f461085e565b005b34801561020257600080fd5b50610225600480360381019080803560001916906020019092919050505061087f565b6040518082815260200191505060405180910390f35b34801561024757600080fd5b5061026a60048036038101908080356000191690602001909291905050506108f5565b005b34801561027857600080fd5b5061029b6004803603810190808035600019169060200190929190505050610a1b565b604051808215151515815260200191505060405180910390f35b3480156102c157600080fd5b506102ca610aa9565b604051808260ff1660ff16815260200191505060405180910390f35b3480156102f257600080fd5b506103156004803603810190808035600019169060200190929190505050610ac0565b604051808215151515815260200191505060405180910390f35b34801561033b57600080fd5b50610344610b32565b604051808263ffffffff1663ffffffff16815260200191505060405180910390f35b34801561037257600080fd5b5061037b610b4f565b604051808215151515815260200191505060405180910390f35b3480156103a157600080fd5b506103aa610b86565b604051808260ff1660ff16815260200191505060405180910390f35b3480156103d257600080fd5b506103db610b9d565b005b3480156103e957600080fd5b506103f2610d8e565b604051808215151515815260200191505060405180910390f35b34801561041857600080fd5b5061043b6004803603810190808035600019169060200190929190505050610e10565b6040518082815260200191505060405180910390f35b34801561045d57600080fd5b50610466610e51565b604051808260ff1660ff16815260200191505060405180910390f35b34801561048e57600080fd5b50610497610e68565b604051808260ff1660ff16815260200191505060405180910390f35b3480156104bf57600080fd5b506104e26004803603810190808035600019169060200190929190505050610e82565b6040518082815260200191505060405180910390f35b34801561050457600080fd5b5061052d600480360381019080803567ffffffffffffffff169060200190929190505050610ec3565b6040518080602001828103825283818151815260200191508051906020019060200280838360005b83811015610570578082015181840152602081019050610555565b505050509050019250505060405180910390f35b34801561059057600080fd5b506105e860048036038101908080359060200190820180359060200190808060200260200160405190810160405280939291908181526020018383602002808284378201915050505050509192919290505050610f3d565b005b3480156105f657600080fd5b5061069f60048036038101908080359060200190820180359060200190808060200260200160405190810160405280939291908181526020018383602002808284378201915050505050509192919290803560001916906020019092919080359060200190820180359060200190808060200260200160405190810160405280939291908181526020018383602002808284378201915050505050509192919290505050611013565b005b3480156106ad57600080fd5b506107056004803603810190808035906020019082018035906020019080806020026020016040519081016040528093929190818152602001838360200280828437820191505050505050919291929050505061120a565b005b34801561071357600080fd5b5061073660048036038101908080356000191690602001909291905050506112df565b005b34801561074457600080fd5b506107676004803603810190808035600019169060200190929190505050611405565b005b34801561077557600080fd5b5061077e61152b565b6040518080602001828103825283818151815260200191508051906020019080838360005b838110156107be5780820151818401526020810190506107a3565b50505050905090810190601f1680156107eb5780820380516001836020036101000a031916815260200191505b509250505060405180910390f35b60006001600560020160009054906101000a900460ff1660ff1614156108225760019050610827565b600090505b90565b6000600560020160019054906101000a900460ff16905090565b6000600560000160009054906101000a900460ff16905090565b6001600560020160026101000a81548160ff021916908360ff160217905550565b600080151561088c6115d0565b15151480156108a65750600115156108a2610b4f565b1515145b156108b457600090506108f0565b600015156108c183610a1b565b151514156108ce57600080fd5b6000600201600083600019166000191681526020019081526020016000205490505b919050565b60001515610901610b4f565b1515148061091a575060001515610916610d8e565b1515145b1561092457600080fd5b600115156109306107f9565b151514801561094b57506000151561094782610ac0565b1515145b1561095557600080fd5b6001600560020160029054906101000a900460ff1660ff16141561097857600080fd5b6001600360010160003373ffffffffffffffffffffffffffffffffffffffff1673ffffffffffffffffffffffffffffffffffffffff16815260200190815260200160002060008282829054906101000a900460ff160192506101000a81548160ff021916908360ff1602179055506010601481819054906101000a900460ff168092919060010191906101000a81548160ff021916908360ff1602179055505050565b600080600090505b6000800180549050811015610a9e576000800181815481101515610a4357fe5b9060005260206000200154600a8160001916905550826000191660006001016000600a546000191660001916815260200190815260200160002054600019161415610a915760019150610aa3565b8080600101915050610a23565b600091505b50919050565b6000601060149054906101000a900460ff16905090565b600080600090505b600360000180549050811015610b2757600360000181815481101515610aea57fe5b9060005260206000200154600f81600019169055508260001916600f54600019161415610b1a5760019150610b2c565b8080600101915050610ac8565b600091505b50919050565b6000600560000160069054906101000a900463ffffffff16905090565b6000600560000160069054906101000a900463ffffffff1663ffffffff1642101515610b7e5760009050610b83565b600190505b90565b6000601060169054906101000a900460ff16905090565b6000601060009054906101000a900473ffffffffffffffffffffffffffffffffffffffff1673ffffffffffffffffffffffffffffffffffffffff163373ffffffffffffffffffffffffffffffffffffffff16141515610bfb57600080fd5b6001600b81905550600090505b6000800180549050811015610d8b576000800181815481101515610c2857fe5b9060005260206000200154600a8160001916905550610c48600a54611601565b60089080519060200190610c5d92919061183f565b5060086040518082805460018160011615610100020316600290048015610cbb5780601f10610c99576101008083540402835291820191610cbb565b820191906000526020600020905b815481529060010190602001808311610ca7575b5050915050604051809103902060006001016000600a54600019166000191681526020019081526020016000208160001916905550600b546000600201600060086040518082805460018160011615610100020316600290048015610d575780601f10610d35576101008083540402835291820191610d57565b820191906000526020600020905b815481529060010190602001808311610d43575b5050915050604051809103902060001916600019168152602001908152602001600020819055508080600101915050610c08565b50565b6000600560000160059054906101000a900460ff1660ff16600360010160003373ffffffffffffffffffffffffffffffffffffffff1673ffffffffffffffffffffffffffffffffffffffff16815260200190815260200160002060009054906101000a900460ff1660ff161415610e085760009050610e0d565b600190505b90565b6000801515610e1e83610a1b565b15151415610e2b57600080fd5b600060020160008360001916600019168152602001908152602001600020549050919050565b6000601060159054906101000a900460ff16905090565b6000600560020160029054906101000a900460ff16905090565b6000801515610e9083610a1b565b15151415610e9d57600080fd5b600060020160008360001916600019168152602001908152602001600020549050919050565b606060001515610ed2836117fd565b15151415610edf57600080fd5b60008001805480602002602001604051908101604052809291908181526020018280548015610f3157602002820191906000526020600020905b81546000191681526020019060010190808311610f19575b50505050509050919050565b6000601060009054906101000a900473ffffffffffffffffffffffffffffffffffffffff1673ffffffffffffffffffffffffffffffffffffffff163373ffffffffffffffffffffffffffffffffffffffff16141515610f9b57600080fd5b600090505b815181101561100f578181815181101515610fb757fe5b90602001906020020151600f81600019169055506003600001600f5490806001815401808255809150509060018203906000526020600020016000909192909190915090600019169055508080600101915050610fa0565b5050565b6000801515611020610b4f565b15151480611039575060001515611035610d8e565b1515145b1561104357600080fd5b6001151561104f6107f9565b151514801561106a57506000151561106684610ac0565b1515145b1561107457600080fd5b6001600560020160029054906101000a900460ff1660ff16141561109757600080fd5b83600d90805190602001906110ad9291906118bf565b5081600e90805190602001906110c492919061190c565b506001600360010160003373ffffffffffffffffffffffffffffffffffffffff1673ffffffffffffffffffffffffffffffffffffffff16815260200190815260200160002060008282829054906101000a900460ff160192506101000a81548160ff021916908360ff160217905550600090505b600e8054905081101561120457600e8181548110151561115457fe5b9060005260206000200154600a816000191690555060006001016000600a546000191660001916815260200190815260200160002054600c8160001916905550600015156111a3600c54610a1b565b151514156111b057600080fd5b600d818154811015156111bf57fe5b9060005260206000200154600b81905550600b5460006002016000600c5460001916600019168152602001908152602001600020819055508080600101915050611138565b50505050565b6000601060009054906101000a900473ffffffffffffffffffffffffffffffffffffffff1673ffffffffffffffffffffffffffffffffffffffff163373ffffffffffffffffffffffffffffffffffffffff1614151561126857600080fd5b600090505b81518110156112db57818181518110151561128457fe5b90602001906020020151600a816000191690555060008001600a549080600181540180825580915050906001820390600052602060002001600090919290919091509060001916905550808060010191505061126d565b5050565b600015156112eb610b4f565b15151480611304575060001515611300610d8e565b1515145b1561130e57600080fd5b6001151561131a6107f9565b151514801561133557506000151561133182610ac0565b1515145b1561133f57600080fd5b6001600560020160029054906101000a900460ff1660ff16141561136257600080fd5b6001600360010160003373ffffffffffffffffffffffffffffffffffffffff1673ffffffffffffffffffffffffffffffffffffffff16815260200190815260200160002060008282829054906101000a900460ff160192506101000a81548160ff021916908360ff1602179055506010601681819054906101000a900460ff168092919060010191906101000a81548160ff021916908360ff1602179055505050565b60001515611411610b4f565b1515148061142a575060001515611426610d8e565b1515145b1561143457600080fd5b600115156114406107f9565b151514801561145b57506000151561145782610ac0565b1515145b1561146557600080fd5b6001600560020160029054906101000a900460ff1660ff16141561148857600080fd5b6001600360010160003373ffffffffffffffffffffffffffffffffffffffff1673ffffffffffffffffffffffffffffffffffffffff16815260200190815260200160002060008282829054906101000a900460ff160192506101000a81548160ff021916908360ff1602179055506010601581819054906101000a900460ff168092919060010191906101000a81548160ff021916908360ff1602179055505050565b606060056001018054600181600116156101000203166002900480601f0160208091040260200160405190810160405280929190818152602001828054600181600116156101000203166002900480156115c65780601f1061159b576101008083540402835291602001916115c6565b820191906000526020600020905b8154815290600101906020018083116115a957829003601f168201915b5050505050905090565b60006001600560000160009054906101000a900460ff1660ff1614156115f957600090506115fe565b600190505b90565b6060806000806000606060206040519080825280601f01601f19166020018201604052801561163f5781602001602082028038833980820191505090505b50945060009350600092505b6020831015611709578260080260020a876001900402600102915060007f010000000000000000000000000000000000000000000000000000000000000002827effffffffffffffffffffffffffffffffffffffffffffffffffffffffffffff19161415156116fc578185858151811015156116c357fe5b9060200101907effffffffffffffffffffffffffffffffffffffffffffffffffffffffffffff1916908160001a90535083806001019450505b828060010193505061164b565b836040519080825280601f01601f19166020018201604052801561173c5781602001602082028038833980820191505090505b509050600092505b838310156117f057848381518110151561175a57fe5b9060200101517f010000000000000000000000000000000000000000000000000000000000000090047f01000000000000000000000000000000000000000000000000000000000000000281848151811015156117b357fe5b9060200101907effffffffffffffffffffffffffffffffffffffffffffffffffffffffffffff1916908160001a9053508280600101935050611744565b8095505050505050919050565b6000600560000160019054906101000a900463ffffffff1663ffffffff168267ffffffffffffffff161415611835576001905061183a565b600090505b919050565b828054600181600116156101000203166002900490600052602060002090601f016020900481019282601f1061188057805160ff19168380011785556118ae565b828001600101855582156118ae579182015b828111156118ad578251825591602001919060010190611892565b5b5090506118bb919061195f565b5090565b8280548282559060005260206000209081019282156118fb579160200282015b828111156118fa5782518255916020019190600101906118df565b5b509050611908919061195f565b5090565b82805482825590600052602060002090810192821561194e579160200282015b8281111561194d57825182906000191690559160200191906001019061192c565b5b50905061195b9190611984565b5090565b61198191905b8082111561197d576000816000905550600101611965565b5090565b90565b6119a691905b808211156119a257600081600090555060010161198a565b5090565b905600a165627a7a723058204fd2799bc4bd38596cc5e89def63ca99c5a23efa88be70cd81be125d041ddb9c0029a165627a7a72305820c6a0c998341bdd22016d7eddf2a2ed05acae2c1cd41dc8bb615d464dcd0dbc360029",
  "source": "pragma solidity ^0.4.19;\n\ncontract Voting {\n\n    struct Ballot {\n        uint8 ballotType;\n        uint32 ballotId;\n        uint8 voteLimit;\n        uint32 timeLimit;\n        string title;\n        uint8 whitelist;\n        uint8 votesToWin;\n        uint8 ended;\n    }\n\n    struct Candidates {\n        bytes32[] candidateList;\n        mapping (bytes32 => bytes32) candidateHash;\n        mapping (bytes32 => uint256) votesReceived;\n    }\n\n    struct Voter {\n        bytes32[] whitelisted;\n        mapping (address => uint8) attemptedVotes;\n    }\n\n    Candidates c;\n    Voter v;\n    Ballot b;\n\n    string convertCandidate;\n    string tempTitle;\n    bytes32 tempCandidate;\n    uint256 tempVote;\n    bytes32 tempHash;\n    uint256[] tempVotes;\n    bytes32[] tempCandidates;\n    bytes32 tempEmail;\n    address owner;\n    uint8 winningpVote;\n    uint8 runneruppVote;\n    uint8 losingpVote;\n\n    function Voting(uint32 _timeLimit, uint8 _ballotType, uint8 _voteLimit, uint32 _ballotId, string _title, uint8 _whitelist, uint8 _votesToWin, address _owner) public {\n        b.timeLimit = _timeLimit;\n        b.ballotType = _ballotType;\n        b.voteLimit = _voteLimit;\n        b.ballotId = _ballotId;\n        b.title = _title;\n        b.whitelist = _whitelist;\n        b.votesToWin = _votesToWin;\n        b.ended = 0;\n\n        owner = _owner;\n        winningpVote = 0;\n        runneruppVote = 0;\n        losingpVote = 0;\n    }\n\n    modifier onlyOwner {\n        require(msg.sender == owner);\n        _;\n    }\n\n    event DelayVoting();\n\n    function setCandidates(bytes32[] _candidates) public onlyOwner {\n        for(uint i = 0; i < _candidates.length; i++) {\n            tempCandidate = _candidates[i];\n            c.candidateList.push(tempCandidate);\n        }\n    }\n\n    function setWhitelisted(bytes32[] _emails) public onlyOwner {\n        for(uint i = 0; i < _emails.length; i++) {\n            tempEmail = _emails[i];\n            v.whitelisted.push(tempEmail);\n        }\n    }\n\n    function hashCandidates() public onlyOwner {\n        tempVote = 1;\n        for(uint i = 0; i < c.candidateList.length; i++) {\n            tempCandidate = c.candidateList[i];\n            convertCandidate = bytes32ToString(tempCandidate);\n            c.candidateHash[tempCandidate] = keccak256(convertCandidate);\n            c.votesReceived[keccak256(convertCandidate)] = tempVote;\n        }\n    }\n\n    function voteForCandidate(uint256[] _votes, bytes32 _email, bytes32[] _candidates) public {\n        if (checkTimelimit() == false || checkVoteattempts() == false) revert();\n        if (checkWhitelist() == true && checkifWhitelisted(_email) == false) revert();\n        if (b.ended == 1) revert();\n        tempVotes = _votes;\n        tempCandidates = _candidates;\n        v.attemptedVotes[msg.sender] += 1;\n\n        for(uint i = 0; i < tempCandidates.length; i++) {\n            tempCandidate = tempCandidates[i];\n            tempHash = c.candidateHash[tempCandidate];\n            if (validCandidate(tempHash) == false) revert();\n            tempVote = tempVotes[i];\n            c.votesReceived[tempHash] = tempVote;\n        }\n    }\n\n    function votesFor(bytes32 cHash) public view returns (uint256){\n        if (validCandidate(cHash) == false) revert();\n        return c.votesReceived[cHash];\n    }\n\n    function totalVotesFor(bytes32 cHash) public view returns (uint256){\n        if (checkBallottype() == false && checkTimelimit() == true) return 0;\n        if (validCandidate(cHash) == false) revert();\n        return c.votesReceived[cHash];\n    }\n\n    function bytes32ToString(bytes32 x) private pure returns (string) {\n        bytes memory bytesString = new bytes(32);\n        uint charCount = 0;\n        for (uint j = 0; j < 32; j++) {\n            byte char = byte(bytes32(uint(x) * 2 ** (8 * j)));\n            if (char != 0) {\n                bytesString[charCount] = char;\n                charCount++;\n            }\n        }\n        bytes memory bytesStringTrimmed = new bytes(charCount);\n        for (j = 0; j < charCount; j++) {\n            bytesStringTrimmed[j] = bytesString[j];\n        }\n        return string(bytesStringTrimmed);\n    }\n\n    function validCandidate(bytes32 cHash) public view returns (bool) {\n        for(uint k = 0; k < c.candidateList.length; k++) {\n            tempCandidate = c.candidateList[k];\n            if (c.candidateHash[tempCandidate] == cHash) {\n                return true;\n            }\n        }\n        return false;\n    }\n\n    function candidateList(uint64 _ballotID) public view returns (bytes32[]) {\n        if (checkballotID(_ballotID) == false) revert();\n        return c.candidateList;\n    }\n\n    function checkTimelimit() public view returns (bool) {\n        if (block.timestamp >= b.timeLimit) return false;\n        else return true;\n    }\n\n    function checkVotesToWin(bytes32 cHash) public view returns (uint256) {\n        if (validCandidate(cHash) == false) revert();\n        return c.votesReceived[cHash];\n    }\n\n    function checkBallottype() private view returns (bool) {\n        if (b.ballotType == 1) return false;\n        else return true;\n    }\n\n    function checkballotID(uint64 ballotID) private view returns (bool) {\n        if (ballotID == b.ballotId) return true;\n        else return false;\n    }\n\n    function checkVoteattempts() public view returns (bool) {\n        if (v.attemptedVotes[msg.sender] == b.voteLimit) return false;\n        else return true;\n    }\n\n    function checkWhitelist() public view returns (bool) {\n        if (b.whitelist == 1) return true;\n        else return false;\n    }\n\n    function checkifWhitelisted(bytes32 email) public view returns (bool) {\n        for(uint j = 0; j < v.whitelisted.length; j++) {\n            tempEmail = v.whitelisted[j];\n            if (tempEmail == email) {\n                return true;\n            }\n        }\n        return false;\n    }\n\n    function getTimelimit() public view returns (uint32) {\n        return b.timeLimit;\n    }\n\n    function getTitle() public view returns (string) {\n        return b.title;\n    }\n\n    function getBallotType() public view returns (uint8) {\n        return b.ballotType;\n    }\n\n    function getVotesToWin() public view returns (uint8) {\n        return b.votesToWin;\n    }\n\n    function getBallotStatus() public view returns (uint8) {\n        return b.ended;\n    }\n\n    function changeBallotStatus() public {\n        b.ended = 1;\n    }\n\n    function addVoteForWinning(bytes32 _email) public {\n        if (checkTimelimit() == false || checkVoteattempts() == false) revert();\n        if (checkWhitelist() == true && checkifWhitelisted(_email) == false) revert();\n        if (b.ended == 1) revert();\n        v.attemptedVotes[msg.sender] += 1;\n\n        winningpVote++;\n    }\n\n    function addVoteForRunnerUp(bytes32 _email) public {\n        if (checkTimelimit() == false || checkVoteattempts() == false) revert();\n        if (checkWhitelist() == true && checkifWhitelisted(_email) == false) revert();\n        if (b.ended == 1) revert();\n        v.attemptedVotes[msg.sender] += 1;\n\n        runneruppVote++;\n    }\n\n    function addVoteForLosing(bytes32 _email) public {\n        if (checkTimelimit() == false || checkVoteattempts() == false) revert();\n        if (checkWhitelist() == true && checkifWhitelisted(_email) == false) revert();\n        if (b.ended == 1) revert();\n        v.attemptedVotes[msg.sender] += 1;\n\n        losingpVote++;\n    }\n\n    function getpVotesWinning() public view returns (uint8) {\n        return winningpVote;\n    }\n\n    function getpVotesRunnerUp() public view returns (uint8) {\n        return runneruppVote;\n    }\n\n    function getpVotesLosing() public view returns (uint8) {\n        return losingpVote;\n    }\n}\n\n\n//                         //\n//Start of Creator contract//\n//                         //\n\ncontract Creator {\n\n    mapping (uint32 => address) contracts;\n    address owner;\n\n    function createBallot(uint32 _timeLimit, uint8 _ballotType, uint8 _voteLimit, uint32 _ballotId, string _title, uint8 _whitelisted, uint8 _votesToWin) public {\n        owner = msg.sender;\n        address newContract = new Voting(_timeLimit, _ballotType, _voteLimit, _ballotId, _title, _whitelisted, _votesToWin, owner);\n        contracts[_ballotId] = newContract;\n    }\n\n    function getAddress(uint32 id) public view returns(address contractAddress) {\n        return contracts[id];\n    }\n}\n",
  "sourcePath": "/home/protox/proxyVotes/contracts/Creator.sol",
  "compiler": {
    "name": "solc",
    "version": "0.4.26+commit.4563c3fc.Emscripten.clang"
  },
  "schemaVersion": "3.0.23",
  "updatedAt": "2020-04-08T17:46:08.048Z",
  "networkType": "ethereum",
  "devdoc": {
    "methods": {}
  },
  "userdoc": {
    "methods": {}
  }
}