{
  "contractName": "Registrar",
  "abi": [
    {
      "inputs": [
        {
          "name": "domainList",
          "type": "bytes32[]"
        }
      ],
      "payable": false,
      "stateMutability": "nonpayable",
      "type": "constructor"
    },
    {
      "constant": false,
      "inputs": [
        {
          "name": "email",
          "type": "bytes32"
        },
        {
          "name": "idnum",
          "type": "uint16"
        },
        {
          "name": "_domain",
          "type": "bytes32"
        },
        {
          "name": "_permreq",
          "type": "uint8"
        }
      ],
      "name": "registerVoter",
      "outputs": [],
      "payable": false,
      "stateMutability": "nonpayable",
      "type": "function"
    },
    {
      "constant": false,
      "inputs": [
        {
          "name": "email",
          "type": "bytes32"
        }
      ],
      "name": "givePermission",
      "outputs": [],
      "payable": false,
      "stateMutability": "nonpayable",
      "type": "function"
    },
    {
      "constant": false,
      "inputs": [
        {
          "name": "_domain",
          "type": "bytes32"
        }
      ],
      "name": "addDomains",
      "outputs": [],
      "payable": false,
      "stateMutability": "nonpayable",
      "type": "function"
    },
    {
      "constant": true,
      "inputs": [
        {
          "name": "domain",
          "type": "bytes32"
        }
      ],
      "name": "domainCheck",
      "outputs": [
        {
          "name": "",
          "type": "bool"
        }
      ],
      "payable": false,
      "stateMutability": "view",
      "type": "function"
    },
    {
      "constant": true,
      "inputs": [
        {
          "name": "email",
          "type": "bytes32"
        },
        {
          "name": "idnum",
          "type": "uint16"
        }
      ],
      "name": "checkReg",
      "outputs": [
        {
          "name": "",
          "type": "bool"
        }
      ],
      "payable": false,
      "stateMutability": "view",
      "type": "function"
    },
    {
      "constant": true,
      "inputs": [
        {
          "name": "email",
          "type": "bytes32"
        }
      ],
      "name": "checkVoter",
      "outputs": [
        {
          "name": "",
          "type": "uint8"
        }
      ],
      "payable": false,
      "stateMutability": "view",
      "type": "function"
    },
    {
      "constant": false,
      "inputs": [
        {
          "name": "_ballotAddr",
          "type": "address"
        },
        {
          "name": "_ballotID",
          "type": "uint32"
        }
      ],
      "name": "setAddress",
      "outputs": [],
      "payable": false,
      "stateMutability": "nonpayable",
      "type": "function"
    },
    {
      "constant": true,
      "inputs": [
        {
          "name": "_ballotID",
          "type": "uint32"
        }
      ],
      "name": "getAddress",
      "outputs": [
        {
          "name": "",
          "type": "address"
        }
      ],
      "payable": false,
      "stateMutability": "view",
      "type": "function"
    },
    {
      "constant": true,
      "inputs": [
        {
          "name": "_email",
          "type": "bytes32"
        }
      ],
      "name": "getPermission",
      "outputs": [
        {
          "name": "",
          "type": "uint8"
        }
      ],
      "payable": false,
      "stateMutability": "view",
      "type": "function"
    }
  ],
  "bytecode": "0x608060405234801561001057600080fd5b506040516109cb3803806109cb833981018060405281019080805182019291905050508060008001908051906020019061004b929190610093565b5033600960006101000a81548173ffffffffffffffffffffffffffffffffffffffff021916908373ffffffffffffffffffffffffffffffffffffffff1602179055505061010b565b8280548282559060005260206000209081019282156100d5579160200282015b828111156100d45782518290600019169055916020019190600101906100b3565b5b5090506100e291906100e6565b5090565b61010891905b808211156101045760008160009055506001016100ec565b5090565b90565b6108b18061011a6000396000f300608060405260043610610099576000357c0100000000000000000000000000000000000000000000000000000000900463ffffffff168063138d94551461009e57806333d33167146100e957806355f16d7c14610134578063646208581461017d57806364bb5657146101d457806368501aee14610205578063794459dd146102785780638a1d37ea146102cb578063d2c09a59146102fc575b600080fd5b3480156100aa57600080fd5b506100cd6004803603810190808035600019169060200190929190505050610356565b604051808260ff1660ff16815260200191505060405180910390f35b3480156100f557600080fd5b50610118600480360381019080803560001916906020019092919050505061041f565b604051808260ff1660ff16815260200191505060405180910390f35b34801561014057600080fd5b506101636004803603810190808035600019169060200190929190505050610453565b604051808215151515815260200191505060405180910390f35b34801561018957600080fd5b506101ba6004803603810190808035600019169060200190929190803561ffff1690602001909291905050506104b6565b604051808215151515815260200191505060405180910390f35b3480156101e057600080fd5b506102036004803603810190808035600019169060200190929190505050610535565b005b34801561021157600080fd5b50610236600480360381019080803563ffffffff1690602001909291905050506105cc565b604051808273ffffffffffffffffffffffffffffffffffffffff1673ffffffffffffffffffffffffffffffffffffffff16815260200191505060405180910390f35b34801561028457600080fd5b506102c9600480360381019080803573ffffffffffffffffffffffffffffffffffffffff169060200190929190803563ffffffff169060200190929190505050610618565b005b3480156102d757600080fd5b506102fa60048036038101908080356000191690602001909291905050506106de565b005b34801561030857600080fd5b506103546004803603810190808035600019169060200190929190803561ffff1690602001909291908035600019169060200190929190803560ff169060200190929190505050610771565b005b60008060006003016000846000191660001916815260200190815260200160002060009054906101000a900461ffff1661ffff161415610399576001905061041a565b3373ffffffffffffffffffffffffffffffffffffffff1660006001016000846000191660001916815260200190815260200160002060009054906101000a900473ffffffffffffffffffffffffffffffffffffffff1673ffffffffffffffffffffffffffffffffffffffff16141515610415576002905061041a565b600090505b919050565b6000806002016000836000191660001916815260200190815260200160002060009054906101000a900460ff169050919050565b600080600090505b60008001805490508110156104ab578260001916600080018281548110151561048057fe5b906000526020600020015460001916141561049e57600191506104b0565b808060010191505061045b565b600091505b50919050565b60008060006003016000856000191660001916815260200190815260200160002060009054906101000a900461ffff1661ffff1614801561051c57506000600102600060040160008461ffff1661ffff1681526020019081526020016000205460001916145b1561052a576001905061052f565b600090505b92915050565b600960009054906101000a900473ffffffffffffffffffffffffffffffffffffffff1673ffffffffffffffffffffffffffffffffffffffff163373ffffffffffffffffffffffffffffffffffffffff1614151561059157600080fd5b600160006002016000836000191660001916815260200190815260200160002060006101000a81548160ff021916908360ff16021790555050565b6000600560000160008363ffffffff1663ffffffff16815260200190815260200160002060009054906101000a900473ffffffffffffffffffffffffffffffffffffffff169050919050565b81600560000160008363ffffffff1663ffffffff16815260200190815260200160002060006101000a81548173ffffffffffffffffffffffffffffffffffffffff021916908373ffffffffffffffffffffffffffffffffffffffff16021790555080600560010160008473ffffffffffffffffffffffffffffffffffffffff1673ffffffffffffffffffffffffffffffffffffffff16815260200190815260200160002060006101000a81548163ffffffff021916908363ffffffff1602179055505050565b600960009054906101000a900473ffffffffffffffffffffffffffffffffffffffff1673ffffffffffffffffffffffffffffffffffffffff163373ffffffffffffffffffffffffffffffffffffffff1614151561073a57600080fd5b6000800181908060018154018082558091505090600182039060005260206000200160009091929091909150906000191690555050565b6000151561077e83610453565b1515141561078b57600080fd5b8260006003016000866000191660001916815260200190815260200160002060006101000a81548161ffff021916908361ffff1602179055508060006002016000866000191660001916815260200190815260200160002060006101000a81548160ff021916908360ff1602179055503360006001016000866000191660001916815260200190815260200160002060006101000a81548173ffffffffffffffffffffffffffffffffffffffff021916908373ffffffffffffffffffffffffffffffffffffffff16021790555083600060040160008561ffff1661ffff1681526020019081526020016000208160001916905550505050505600a165627a7a7230582013c39d9a8ee4c3b6898c98c3246e14e9d994b30d2b4bad18eb77122c16d757810029",
  "source": "pragma solidity ^0.4.19;\n\ncontract Registrar {\n\n    struct Voter {\n        bytes32[] allowedDomains;\n        mapping (bytes32 => address) voterAddr;\n        mapping (bytes32 => uint8) createPerm;\n        mapping (bytes32 => uint16) voterID;\n        mapping (uint16 => bytes32) voterEmail;\n    }\n\n    struct Ballot {\n        mapping (uint32 => address) votingAddress;\n        mapping (address => uint32) ballotID;\n        mapping (uint64 => uint8) whitelistCheck;\n        mapping (bytes32 => uint8) allowedVoters;\n    }\n\n    Voter v;\n    Ballot b;\n    address owner;\n\n    function Registrar(bytes32[] domainList) public {\n        v.allowedDomains = domainList;\n        owner = msg.sender;\n    }\n\n    modifier onlyOwner {\n        require(msg.sender == owner);\n        _;\n    }\n\n    function registerVoter(bytes32 email, uint16 idnum, bytes32 _domain, uint8 _permreq) public {\n        if (domainCheck(_domain) == false) revert();\n        v.voterID[email] = idnum;\n        v.createPerm[email] = _permreq;\n        v.voterAddr[email] = msg.sender;\n        v.voterEmail[idnum] = email;\n    }\n\n    function givePermission(bytes32 email) public onlyOwner {\n        v.createPerm[email] = 1;\n    }\n\n    function addDomains(bytes32 _domain) public onlyOwner {\n        v.allowedDomains.push(_domain);\n    }\n\n    function domainCheck(bytes32 domain) public view returns (bool) {\n        for(uint i = 0; i < v.allowedDomains.length; i++) {\n            if (v.allowedDomains[i] == domain) {\n                return true;\n            }\n        }\n        return false;\n    }\n\n    function checkReg(bytes32 email, uint16 idnum) public view returns (bool) {\n        if (v.voterID[email] == 0 && v.voterEmail[idnum] == 0) return true;\n        else return false;\n    }\n\n    function checkVoter(bytes32 email) public view returns (uint8) {\n        if (v.voterID[email] == 0) return 1;\n        if (v.voterAddr[email] != msg.sender) return 2;\n        else return 0;\n    }\n\n    function setAddress(address _ballotAddr, uint32 _ballotID) public {\n        b.votingAddress[_ballotID] = _ballotAddr;\n        b.ballotID[_ballotAddr] = _ballotID;\n    }\n\n    function getAddress(uint32 _ballotID) public view returns (address) {\n        return b.votingAddress[_ballotID];\n    }\n\n    function getPermission(bytes32 _email) public view returns (uint8) {\n        return v.createPerm[_email];\n    }\n}\n",
  "sourcePath": "/home/protox/proxyVotes/contracts/Registrar.sol",
  "compiler": {
    "name": "solc",
    "version": "0.4.26+commit.4563c3fc.Emscripten.clang"
  },
  "schemaVersion": "3.0.23",
  "updatedAt": "2020-04-08T17:46:08.036Z",
  "networkType": "ethereum",
  "devdoc": {
    "methods": {}
  },
  "userdoc": {
    "methods": {}
  }
}